:020000040000FA
:060000000A128A11F92F1B
:100E6A00F00070088312031393000800831603131B
:100E7A00141C402F412F3B2F08000A128A113B27CE
:100E8A000A128A1183120313130808008316031324
:100E9A00181218158316031787156730831603135C
:100EAA0099009A01831203139817181318168316B8
:100EBA00031398160800F300831603138712731D91
:100ECA00672F682F6C2F720894008715702F70088F
:100EDA007204940087117308710483120313940037
:100EEA0008008312031386018316031386018316EF
:100EFA0003178901831203138801831603138801D8
:100F0A0083120313850183160313850183160317BE
:100F1A00880108000A128A1176270A128A11F0013A
:100F2A00F101F20120300A128A1160270A128A118D
:100F3A000A128A114B270A128A11FF300A128A11E1
:100F4A0035270A128A110A128A1142270A128A11AD
:100F5A00F4007408F8000D30F500FB30F400F40BCF
:100F6A00B42FF50BB42FB92F0F300A128A11352777
:100F7A000A128A110A128A1142270A128A11F400E5
:100F8A007408F7000D30F500FB30F400F40BCB2F9A
:100F9A00F50BCB2FD02F78088312031399000C1E60
:100FAA00D72FD82FD42F770899000C1EDD2FDE2FCC
:100FBA00DA2F8C1EE12FE22FE62F1A08F4007408AC
:100FCA00F6008230F500DD30F400F40BEA2FF50B61
:100FDA00EA2FEF2F7708831203138800760886001A
:100FEA00A22F0A128A110028F601F701F8018301DB
:060FFA000A128A118F2F7C
:04400E00D4E0FFFFFC
:00000001FF
