:020000040000FA
:060000000A128A11F72F1D
:100EA400F0007008831203139300080083160313E1
:100EB400141C5D2F5E2F582F08000A128A11582720
:100EC4000A128A11831203131308080083160313EA
:100ED4001812181583160317871567308316031322
:100EE40099009A018312031398171813181683167E
:100EF400031398160800F300831603138712731D57
:100F0400842F852F892F7208940087158D2F7008E0
:100F140072049400871173087104831203139400FC
:100F240008008312031386018316031386018316B4
:100F3400031789018312031388018316031388019D
:100F44008312031385018316031385018316031784
:100F5400880108000A128A1193270A128A11F001E3
:100F6400F101F20120300A128A117D270A128A1136
:100F74000A128A1168270A128A11FF300A128A118A
:100F840052270A128A110A128A115F270A128A1139
:100F9400F4007408FA000D30F500FB30F400F40B93
:100FA400D12FF50BD12FD62F0F300A128A115227C9
:100FB4000A128A110A128A115F270A128A11F4008E
:100FC4007408F9000D30F500FB30F400F40BE82F41
:100FD400F50BE82FED2F79088312031388007A08A4
:100FE4008600BF2F0A128A110028F601F701F801C2
:0C0FF400F901FA0183010A128A11AC2FE6
:04400E00D4E0FFFFFC
:00000001FF
