:020000040000FA
:060000000A128A110C280F
:10000800FE00030EF2000A08F3000A128A11FF2804
:100018000A128A110F28F601F701F801F901830184
:100028000A128A11BB2883120313A0009F131F17FB
:1000380072289F121F129F111F11AC289F121F12A6
:100048009F111F15AC289F121F129F151F11AC2856
:100058009F121F129F151F15AC289F121F169F1164
:100068001F11AC289F121F169F111F15AC289F1235
:100078001F169F151F11AC289F121F169F151F15BD
:10008800AC289F161F129F111F11AC289F161F1214
:100098009F111F15AC289F161F129F151F11AC2802
:1000A8009F161F129F151F15AC289F161F169F110C
:1000B8001F11AC289F161F169F111F15AC289F16DD
:1000C8001F169F151F11AC289F161F169F151F1569
:1000D800AC289F121F129F111F11AC282008F40092
:1000E800F5017508003A03197A286D287408003A52
:1000F80003191D28013A03192228033A031927284E
:10010800013A03192C28073A03193128013A03192F
:100118003628033A03193B28013A031940280F3AB5
:1001280003194528013A03194A28033A03194F28A5
:10013800013A03195428073A03195928013A0319AF
:100148005E28033A03196328013A031968286D28C1
:10015800831603139F139F121F12831203131F1476
:100168000C139F149F18B928BA28B62808000A1239
:100178008A114B210A128A1183120313A001A101CB
:10018800A20125300A128A112D210A128A11003083
:100198000A128A1117200A128A11831203130C13E8
:1001A8001E08A3002308F900073083120313A400D4
:1001B8007C30A300A30BDE28A40BDE28000001304E
:1001C8000A128A1117200A128A11831203130C13B8
:1001D8001E08A3002308F800073083120313A400A5
:1001E8007C30A300A30BF628A40BF6280000CB282C
:1001F8000A128A110C28831203138C1D042905295D
:1002080026290A128A1168210A128A11F100710836
:10021800F7007708831203138600770A031D152950
:1002280016291D2979080A128A1178210A128A11B9
:10023800232978080A128A1178210A128A1183124E
:1002480003138C1173088A00720E8300FE0E7E0E53
:100258000900F400831603138712741D3429352905
:100268003D2983120313220883160313940087156C
:1002780045298312031320082204831603139400CC
:100288008711740883120313210494000800831251
:100298000313850103308316031385000330831687
:1002A800031788008312031386018316031386013C
:1002B8008316031789018B170B17831603138C15E5
:1002C800831203138C1108000A128A1171210A1271
:1002D8008A11831203131308080083160313141CCE
:1002E8007629772971290800F00070088312031312
:0402F8009300080067
:04400E00D4E0FFFFFC
:00000001FF
